:100000000C943B010C9463010C9463010C94630108
:100010000C9463010C9463010C9463010C946301D0
:100020000C9463010C94A00A0C94CE040C9440052B
:100030000C9463010C9463010C9463010C946301B0
:100040000C9463010C9463010C9463010C946301A0
:100050000C945E0C0C9463010C9463010C94560A8E
:100060000C9463010C94CE070C94A8070C946301C4
:100070000C9463010C9463010C9463010C94630170
:100080000C9463010C9463010C9463010C94630160
:100090000C94300B0C9463010C9463010C94630179
:1000A0000C9463010C9463010C946301BB09BE09B9
:1000B000AD09B109B709DF09DF09DF09C209C609BE
:1000C000CA09D009D409DF09DA0907634236B79BA8
:1000D000D8A71A39685618AEBAAB558C1D3CB7CCA8
:1000E0005763BD6DEDFD753EF6177231BF00000020
:1000F000803F08000000BE922449123EABAAAA2A03
:10010000BECDCCCC4C3E00000080BEABAAAAAA3E1D
:1001100000000000BF000000803F00000000000859
:100120004178D3BB4387D1133D190E3CC3BD4282F6
:10013000AD2B3E68EC8276BED98FE1A93E4C80EFB4
:10014000FFBE01C4FF7F3F000000000072756E2DEE
:100150006272696467650A000A000A0007060504FE
:100160000100080A0B0C0D090000000200090F0035
:1001700000030401000C000000000000000000006B
:1001800000000000000000080B000202020100094C
:1001900004000001020200000524001001052401F2
:1001A000010104240206052406000107058103104D
:1001B000004009040100020A000000070502024095
:1001C0000000070583024000000403090441726433
:1001D00075696E6F204C4C430041726475696E6F97
:1001E0002059756E001201000200000040412341B9
:1001F0008000010102030112010002EF02014041EF
:1002000023418000010102030100000000250028B5
:10021000002B002E00310000000000240027002ADF
:10022000002D003000000000002300260029002CD3
:10023000002F000404040404030405020202020463
:100240000302020202060606060606040402020271
:1002500004040408020110408040102040804080C7
:10026000080204018040201002011080102040404C
:1002700020003F202B2011241FBECFEFDAE0DEBF8D
:10028000CDBF14E0A0E0B1E0E0EEF1E502C00590E2
:100290000D92A039B107D9F728E0A0E9B4E001C078
:1002A0001D92A533B207E1F711E0CAE3D1E004C023
:1002B0002197FE010E94A422C933D107C9F70E94E9
:1002C00059130C94E3280C9400004091E4045091DD
:1002D000E5042091E2043091E30442175307B4F49B
:1002E0009091E8009570E1F39091E80092FD19C0BB
:1002F0008093F1008091E4049091E50401968F735E
:100300009927892B19F48EEF8093E8008091E404FB
:100310009091E50401969093E5048093E40481E0D4
:10032000089580E00895DF92EF92FF920F931F935C
:10033000CF93DF93D82E8A017B01E40EF51EEB01EB
:10034000CE15DF0571F0D7FE03C0FE01849101C018
:1003500088810E94650121968111F2CF8FEF9FEF76
:1003600001C0C801DF91CF911F910F91FF90EF90D5
:10037000DF900895615030F02091F100FC0120835E
:100380000196F8CF289884E6809323080895CF92A9
:10039000DF92EF92FF920F931F93CF93DF936C0145
:1003A0007A018B01C0E0D0E0CE15DF0589F0D801DD
:1003B0006D918D01D601ED91FC910190F081E02DC0
:1003C000C6010995892B11F47E0102C02196ECCF5C
:1003D000C701DF91CF911F910F91FF90EF90DF90B8
:1003E000CF900895FC01918D828D981761F0828DD8
:1003F000DF01A80FB11D5D968C91928D9F5F9F7359
:10040000928F90E008958FEF9FEF0895FC01918DFA
:10041000828D981731F0828DE80FF11D858D90E067
:1004200008958FEF9FEF0895FC01918D228D892F04
:1004300090E0805C9F4F821B91098F7399270895EC
:1004400080E496E00E94140221E0892B09F420E068
:10045000822F0895FC01848DDF01A80FB11DA35ADE
:10046000BF4F2C91848D90E001968F739927848FD4
:10047000A689B7892C93A089B1898C9180648C93CB
:10048000938D848D981306C00288F389E02D8081B6
:100490008F7D80830895EF92FF920F931F93CF93E8
:1004A000DF93EC0181E0888F9B8D8C8D981305C0C4
:1004B000E889F989808185FD24C0F62E0B8D10E036
:1004C0000F5F1F4F0F731127E02E8C8DE8120CC0A9
:1004D0000FB607FCFACFE889F989808185FFF5CF4F
:1004E000CE010E942A02F1CF8B8DFE01E80FF11D93
:1004F000E35AFF4FF0820B8FEA89FB89808180628B
:1005000007C0EE89FF896083E889F989808180646A
:10051000808381E090E0DF91CF911F910F91FF9058
:10052000EF900895CF93DF93EC01888D8823C9F075
:10053000EA89FB89808185FD05C0A889B9898C91EC
:1005400086FD0FC00FB607FCF5CF808185FFF2CF87
:10055000A889B9898C9185FFEDCFCE010E942A022E
:10056000E7CFDF91CF91089580E090E0892B29F0CB
:100570000E94200281110C9400000895CF93DF9314
:100580001F92CDB7DEB76983DC01ED91FC9102804B
:10059000F381E02D41E050E0BE016F5F7F4F099590
:1005A0000F90DF91CF91089583E08093E9008091CF
:1005B000F200882319F08AE38093E80008950E94EE
:1005C0003E270F931F93CF93DF93EC01888199818E
:1005D000009729F02A813B812617370788F48B0181
:1005E0006F5F7F4F0E947426009761F09983888324
:1005F0001B830A832C813D81232B11F4FC01108283
:1006000081E001C080E0DF91CF911F910F910895AB
:100610000F931F93CF93DF931F92CDB7DEB782E086
:10062000898342E450E067E871E080E80E9493012A
:100630000E944513DC0112960D911C911397011530
:10064000110569F0D801ED91FC910280F381E02D54
:10065000BE016F5F7F4FC801099597FF07C0898171
:100660000F90DF91CF911F910F910895F8010085B0
:100670001185E5CF8F929F92AF92BF92CF92DF927A
:10068000EF92FF920F931F93CF93DF935C016B0167
:100690008A0180910D01882309F45EC080912408AD
:1006A000882309F459C08091910480FF05C080918E
:1006B000E00082608093E000E8018AEFF82E93E08A
:1006C000E92E2FE3822E3AE3932E209709F43DC0C2
:1006D0008FB7F894E092E9009091E80095FF06C08A
:1006E0009091F200282D291B922F01C090E08FBF1E
:1006F00091110AC0FA94FF2079F161E070E080E086
:1007000090E00E94100AE1CF292F30E0C217D307F2
:100710000CF49C2F8FB7F894E092E9002091E80048
:1007200025FF11C0292F30E0C21BD30BF6019150D9
:1007300020F041914093F100FACFC20ED31E909168
:10074000E80095FF13C08FBFC0CF5D9884E680930B
:10075000E6041016110644F081E090E0F501938361
:10076000828380E090E005C0C80103C09092E80059
:10077000EACFDF91CF911F910F91FF90EF90DF9023
:10078000CF90BF90AF909F908F900895CF93DF93BD
:100790001F92CDB7DEB7FC018485958597FD05C016
:1007A0002FEF3FEF358724870BC0CE0101960E94C3
:1007B0001B13019719F4898190E002C08FEF9FEF1E
:1007C0000F90DF91CF9108950F931F93CF93DF93F5
:1007D0001F92CDB7DEB78C01FC018485958597FF0C
:1007E0000EC0CE0101960E941B13019719F42981B6
:1007F00030E002C02FEF3FEFF80135872487F80182
:10080000848595850F90DF91CF911F910F91089569
:10081000EF92FF920F931F93CF93DF93FC012481FC
:1008200035816115710511F480E019C0411551053C
:10083000A9F07B01EC018A01020F131FB8010E948D
:10084000E102882389F3288139818C819D81B70158
:10085000820F931F0E944C271D830C8381E0DF9140
:10086000CF911F910F91FF90EF900895CF93DF9359
:10087000EC0188819981009711F00E94DC25198292
:1008800018821D821C821B821A82DF91CF910895EB
:10089000CF93DF93EC01FB0144815581608171812D
:1008A0000E940804811103C0CE010E943604CE01CB
:1008B000DF91CF910895EF92FF920F931F93CF9303
:1008C000DF93EC01FB0186179707B9F000811181D6
:1008D0000115110539F0E480F580B7010E94E102AD
:1008E000811104C0CE010E94360407C0FD82EC8253
:1008F000B801888199810E944C27CE01DF91CF9168
:100900001F910F91FF90EF900895FC0180819181DC
:100910000C94DC25FC011182108213821282158254
:1009200014820C945B04EF92FF920F931F93CF936A
:10093000DF93EC01198218821B821A821D821C82AD
:100940006115710521F18B01FB0101900020E9F790
:1009500031977F01E61AF70AB7010E94E10281117F
:1009600009C0CE01DF91CF911F910F91FF90EF90C1
:100970000C943604FD82EC82B80188819981DF9164
:10098000CF911F910F91FF90EF900C944C27DF9126
:10099000CF911F910F91FF90EF9008951F920F92AA
:1009A0000FB60F9211248F939F938091E100909145
:1009B000E100937F9093E10083FF0FC01092E90064
:1009C00091E09093EB001092EC0092E39093ED0095
:1009D0001092240898E09093F00082FF20C093E0EA
:1009E0009093E9009091F200992319F09AE3909383
:1009F000E8009091E604992339F09091E604915033
:100A00009093E604992389F190912308992339F072
:100A100090912308915090932308992341F184FFEA
:100A200010C08091E2008E7E81608093E200809110
:100A3000E1008F7E8093E100809191048E7E806141
:100A400011C080FF16C08091E2008E7E806180938D
:100A5000E2008091E1008E7E8093E100809191041C
:100A60008E7E81608093910404C05D9ACDCF289AD8
:100A7000D6CF9F918F910F900FBE0F901F9018951A
:100A80001F920F920FB60F921124CF92DF92EF9226
:100A9000FF920F931F932F933F934F935F936F9307
:100AA0007F938F939F93AF93BF93EF93FF93CF93D6
:100AB000DF93CDB7DEB76C97DEBFCDBF1092E900F4
:100AC0008091E80083FFFAC168E0CE0145960E945C
:100AD000BA0182EF8093E8008D8987FF05C090916D
:100AE000E80090FFFCCF03C09EEF9093E800982FA2
:100AF000907609F0C6C09E892F89188D91110CC07F
:100B0000803829F4809192048093F10002C0109201
:100B1000F1001092F10047C1422F50E0512B91306B
:100B200051F4811140C14130510509F03CC180911F
:100B300092048D7F0BC0933061F4811134C1413038
:100B4000510509F030C18091920482608093920433
:100B50002AC1953041F48091E80080FFFCCF2068E5
:100B60002093E30020C1963009F05FC0EB8CFC8C31
:100B70001092E9001092E5041092E404123091F50D
:100B80001092E3041092E2040E94080399E0BE016F
:100B90006F5F7F4FDB01E92F1D92EA95E9F799839B
:100BA0001A8391E09E8390EA98879AEF9987209123
:100BB000E4043091E504275F3F4F3C832B838D8312
:100BC0001092E9001092E5041092E404F092E3041C
:100BD000E092E20449E050E080E00E9493010E942C
:100BE0000803E1C0F092E304E092E2040E9445139E
:100BF000DC011296ED90FC901397E114F10409F4D6
:100C0000C0C0D701ED91FC910480F581E02DBE01BB
:100C10006B5E7F4FC7010995009719F00CF0C3C0B8
:100C2000C6C0F701E084F184E8CF973009F4BFC073
:100C3000983021F481E08093F100B5C0993009F03B
:100C4000B2C0837009F0B3C0EFE1F1E081E021E0D0
:100C500036E39081992361F08093E9002093EB00C3
:100C600091919093EC003093ED008F5F873089F77E
:100C70008EE78093EA001092EA008F89809324081F
:100C800092C08B8D9C8D1092E9001092E504109219
:100C9000E4049093E3048093E204898D811156C0AB
:100CA0008E899D89913A59F4813209F080C047E0DC
:100CB00050E066E071E080E00E94930174C09132E0
:100CC00009F075C0833289F4888D90E0982F8827C9
:100CD0002F89822BA0E0B0E0809302019093030162
:100CE000A0930401B09305015EC0803269F4809145
:100CF000E80082FFFCCF67E086E091E00E94BA0145
:100D00008BEF8093E80006C0823209F04CC08F89D7
:100D100080930D0180919004882319F0EEEFFAE0A2
:100D200002C0E0E0F8E08091060190910701A091F7
:100D30000801B0910901803B9440A105B10509F07B
:100D400088C080910D0180FFA0C083C00E94451320
:100D5000DC0112960D911C9113970115110539F1C3
:100D6000D801ED91FC910190F081E02DBE016B5E08
:100D70007F4FC8010995811116C0F80100851185C2
:100D8000ECCF1130C1F0133091F48F89882309F42E
:100D900055C08230E9F440E86BE089ED91E00E94B3
:100DA000EE1F882321F08EEF8093E80087C081E258
:100DB0008093EB0083C08B8D9C8D089711F410936A
:100DC000E1048091E104811136C065EE71E038C024
:100DD000813029F440E86BE08DEC91E0E0CF833086
:100DE00031F70E944513DC011296ED90FC901397A9
:100DF0008E010F5F1F4F6801E114F10479F0D701F4
:100E0000ED91FC910680F781E02DB801C7010995AD
:100E1000080F111DF701E084F184EECFD8011C9278
:100E2000F60101900020E9F73197BF016C197D09A7
:100E300040E0C601B4CF67EF71E002C069EC71E039
:100E40006115710509F4B3CFFB01449150E080E8CE
:100E500033CF0FB6F894A895809160008861809395
:100E60006000109260000FBEA895EE3F2AE0F207E6
:100E700039F08091FE0A9091FF0A9183808393CF8D
:100E80001092FF0A1092FE0A8ECFEE3F8AE0F8071A
:100E900031F0808191819093FF0A8093FE0A87E769
:100EA00097E7918380839BE088E10FB6F894A8953B
:100EB000809360000FBE9093600075CF6C960FB664
:100EC000F894DEBF0FBECDBFDF91CF91FF91EF91C0
:100ED000BF91AF919F918F917F916F915F914F9152
:100EE0003F912F911F910F91FF90EF90DF90CF9046
:100EF0000F900FBE0F901F901895DC01ED91FC91A3
:100F00000190F081E02D0994EF92FF920F931F93CF
:100F1000CF93DF938C017B01C0E0D0E0F701EC0FB1
:100F2000FD1F6491662361F0D801ED91FC91019061
:100F3000F081E02DC8010995892B11F02196EECFA3
:100F4000CE01DF91CF911F910F91FF90EF90089507
:100F50001F920F920FB60F9211242F933F934F932E
:100F60005F936F937F938F939F93AF93BF93EF9311
:100F7000FF9380E496E00E942A02FF91EF91BF91D7
:100F8000AF919F918F917F916F915F914F913F9121
:100F90002F910F900FBE0F901F9018951F920F92D8
:100FA0000FB60F9211242F938F939F93EF93FF937C
:100FB000E0915006F09151068081E0915606F09143
:100FC000570682FD12C09081809159068F5F8F7302
:100FD00020915A06821751F0E0915906F0E0E05C4A
:100FE000F94F958F8093590601C08081FF91EF9151
:100FF0009F918F912F910F900FBE0F901F9018957A
:10100000FC018485958597FD0BC09FB7F89482E01D
:101010008093E9008091F2009FBF90E001960895CF
:101020009FB7F89482E08093E9008091F2009FBF1F
:1010300090E008953FB7F8948091730590917405FE
:10104000A0917505B091760526B5A89B05C02F3FE8
:1010500019F00196A11DB11D3FBFBA2FA92F982FDE
:101060008827820F911DA11DB11DBC01CD0142E059
:10107000660F771F881F991F4A95D1F70895209111
:101080009504309196042817390771F490919304D0
:1010900080919404981741F0E0919304F0E0E25DB0
:1010A000FA4F808190E008958FEF9FEF08950895A3
:1010B0001F93CF93DF93DC015C962D913C915D975C
:1010C0002115310539F481E090E013969C938E93BD
:1010D00012973DC05196ED91FC91529750969C917C
:1010E0005097892F80951FB75E964C915E9741FB74
:1010F000772770F941FD6095F8944081772311F0CE
:10110000492B01C048234083E9012197F1F748E0CA
:10111000508160FF02C0592B01C058235083E90160
:101120002197F1F76695415099F7772321F0908147
:101130008923808303C08081982B90831FBF5C9696
:101140008D919C915D970197F1F721E030E0C90105
:10115000DF91CF911F9108952091950430919604CD
:101160002817390771F4809194042091930490E03A
:10117000805C9F4F821B910960E470E00E944F22C7
:10118000089580E090E008952091950430919604B0
:1011900028173907B9F49091930480919404981713
:1011A00089F0E0919304F0E0E25DFA4F80812091B4
:1011B000930430E02F5F3F4F2F7333272093930426
:1011C00090E008958FEF9FEF089585ED8093BC0028
:1011D0008091BC0084FDFCCF1092E30508954091FE
:1011E0000905262F30E0240F311D21323105DCF4B2
:1011F0002091E3052430C9F4FC0180E090E08617DB
:1012000058F4309109052191DC01A951BB4FA30F7E
:10121000B11D2C930196F3CF80910905680F60935F
:10122000090580E0089581E0089582E00895089519
:10123000E091780580917705E81730F4F0E0E35607
:10124000FA4F808190E008958FEF9FEF089590917D
:10125000780580917705981750F4E92FF0E0E35670
:10126000FA4F208130E09F5F9093780502C02FEF06
:101270003FEFC90108958091770590E020917805AE
:10128000821B91090895CF92DF92EF92FF920F9304
:101290001F93CF93DF937C01262F972F8A01809194
:1012A0007905882391F0C62FD72F6E01C40ED51E65
:1012B000CC15DD0571F06991D701ED91FC9101909C
:1012C000F081E02DC7010995F3CF642F822F0E9492
:1012D000EF08C801DF91CF911F910F91FF90EF9020
:1012E000DF90CF900895CF93DF931F92CDB7DEB7F5
:1012F0006983209179052223D1F020919C05203229
:1013000040F021E030E0FC013383228380E090E074
:1013100015C080917A05E82FF0E0E558FA4F9981E1
:1013200090838F5F80937A0580939C0505C061E070
:10133000CE0101960E94EF0881E090E00F90DF91CE
:10134000CF910895089590E0FC013197EF30F105B9
:10135000B0F5EA5AFF4F0C94A422809180008F7759
:1013600003C0809180008F7D8093800008958091DC
:101370008000877FF9CF84B58F7702C084B58F7DD9
:1013800084BD0895809190008F7707C08091900070
:101390008F7D03C080919000877F80939000089597
:1013A0008091C0008F7703C08091C0008F7D8093B3
:1013B000C00008958091C200877F8093C200089585
:1013C0001F93CF93DF93282F30E0F901E859FE4FA8
:1013D0008491F901EE5AFD4FD491F901ED5CFD4F76
:1013E000C491CC23C9F0162F81110E94A309EC2FC0
:1013F000F0E0EE0FFF1FE75FFD4FA591B4918FB7AF
:10140000F894111105C09C91ED2FE095E92302C0DD
:10141000EC91ED2BEC938FBFDF91CF911F9108954D
:101420008F929F92AF92BF92CF92DF92EF92FF92F4
:101430006B017C010E941A084B015C01C114D104AC
:10144000E104F104F1F00E941A08DC01CB018819D3
:101450009909AA09BB09883E9340A105B10570F31B
:1014600021E0C21AD108E108F10888EE880E83E075
:10147000981EA11CB11CC114D104E104F10419F798
:10148000DDCFFF90EF90DF90CF90BF90AF909F9017
:101490008F9008952FB7F89460916F057091700543
:1014A00080917105909172052FBF08951F920F9240
:1014B0000FB60F9211242F933F938F939F93AF9367
:1014C000BF9380916F0590917005A0917105B091C7
:1014D000720530916E0523E0230F2D3720F401961D
:1014E000A11DB11D05C026E8230F0296A11DB11D47
:1014F00020936E0580936F0590937005A0937105FE
:10150000B09372058091730590917405A091750553
:10151000B09176050196A11DB11D8093730590933E
:101520007405A0937505B0937605BF91AF919F9117
:101530008F913F912F910F900FBE0F901F90189594
:101540001F920F920FB60F9211242F933F934F9338
:101550005F936F937F938F939F93AF93BF93EF931B
:10156000FF93E0919504F0919604309709F451C0EF
:10157000968DA685B785858591FF04C09C918923AA
:1015800029F447C09C91892309F043C0A389B489F9
:101590009C918589809589238C9386899789019769
:1015A000F1F7608D718DA685B785558538E020E00F
:1015B000CB010197F1F7822F90E095958795282F21
:1015C0004C91452309F02068315091F7868D81FDBB
:1015D00020958091940490E001968F739927309123
:1015E0009304381749F0A0919404B0E0A25DBA4F7B
:1015F0002C938093940403C0868D8160868F828DA6
:10160000938D0197F1F7A389B4899C918589892BE2
:101610008C93FF91EF91BF91AF919F918F917F91AB
:101620006F915F914F913F912F910F900FBE0F904F
:101630001F901895E0919504F0919604E817F9072A
:1016400069F4A389B4899C918589809589238C93B9
:10165000109296041092950481E0089580E0089518
:101660001F920F920FB60F9211242F933F934F9317
:101670005F936F937F938F939F93AF93BF93EF93FA
:10168000FF938091B900887F803609F49CC068F58B
:10169000883209F45BC090F4803109F454C038F406
:1016A000882309F4F6C0883009F44DC0F6C08831AB
:1016B00009F44CC0803209F45DC0EFC0803409F4F5
:1016C00068C048F4803309F455C0883309F0E5C098
:1016D0008093E105D8C0803509F44FC0883509F4FE
:1016E0005DC0883409F0D9C0D6C0883909F4C7C0B4
:1016F000A8F4883709F467C038F4883609F463C061
:10170000803709F460C0C9C0883809F4B8C080398E
:1017100009F45FC0803809F0C0C05BC0803B09F4A9
:1017200086C038F4803A09F466C0883A09F47FC06C
:10173000B4C0803C09F4A7C0883C09F4A4C0883B2D
:1017400009F48AC0AAC08091DE0510C09091E0051E
:101750008091DF05981770F5E091E00581E08E0F2C
:101760008093E005F0E0E354FA4F80818093BB0062
:1017700085EC86C08093E1058EC0E091E00581E0B4
:101780008E0F8093E0058091BB00F0E0E354FA4FA8
:1017900080839091E0058091DF056EC0E091E005C7
:1017A00081E08E0F8093E0058091BB00F0E0E35470
:1017B000FA4F80838091E20581116DC081E08093B2
:1017C000DD0584EA61C083E08093E30510922D0576
:1017D000CFCF80912D05803208F051C0E0912D05CA
:1017E00081E08E0F80932D058091BB00F0E0E35FD8
:1017F000FA4F8083BDCF85EC8093BC001092E30547
:1018000080912D05803230F4E0912D05F0E0E35F0A
:10181000FA4F108260912D0570E0E0910B05F09178
:101820000C058DE095E0099510922D0536C084E0F9
:101830008093E30510920A0510920905E0910705CF
:10184000F0910805099580910905811105C081E095
:10185000809309051092E704E0910A0581E08E0F5C
:1018600080930A05F0E0E951FB4F80818093BB0033
:1018700090910A0580910905981708F479CF85E8B9
:101880008093BC000AC085EC8093BC001092E305F5
:1018900004C01092E1050E94E508FF91EF91BF910D
:1018A000AF919F918F917F916F915F914F913F91F8
:1018B0002F910F900FBE0F901F9018951F920F92AF
:1018C0000FB60F9211242F933F934F935F936F9313
:1018D0007F938F939F93AF93BF93EF93FF93E0E03A
:1018E000F0E00995FF91EF91BF91AF919F918F919A
:1018F0007F916F915F914F913F912F910F900FBE0C
:101900000F901F901895CF93DF93EC018D819E81EE
:10191000DC01ED91FC910480F581E02D099518160C
:10192000190654F48D819E81DC01ED91FC910680B5
:10193000F781E02D0995EACFDF91CF9108958F923D
:101940009F92AF92BF92CF92DF92EF92FF92CF938E
:10195000DF93EC016B010E944A0A4B015C01E12C10
:10196000F12C8D819E81DC01ED91FC910680F78147
:10197000E02D099597FF0FC00E944A0ADC01CB01B8
:1019800088199909AA09BB098C159D05AE05BF05E3
:1019900040F38FEF9FEFDF91CF91FF90EF90DF90BB
:1019A000CF90BF90AF909F908F900895FC012381BE
:1019B00034812627022E2295207F2025032E322FC8
:1019C00022952F700226269532272327220F220FD9
:1019D000220F2025348323830895CF92DF92EF9244
:1019E000FF920F931F936801790100E010E020E05F
:1019F00030E00E94BE0E1F910F91FF90EF90DF909C
:101A0000CF9008950F931F93CF93DF9300D01F9231
:101A1000CDB7DEB729E42983FC0126852A836B83B1
:101A200000E010E020E030E043E050E0BE016F5FF6
:101A30007F4F848595850E94ED0C81E090E00F90AA
:101A40000F900F90DF91CF911F910F910895EF921A
:101A5000FF920F931F93CF93DF9300D0CDB7DEB7E4
:101A60007C01FC018189882389F087E78983868549
:101A70008A8300E010E020E030E042E050E0BE0168
:101A80006F5F7F4F848595850E94ED0CF701118A69
:101A90000F900F90DF91CF911F910F91FF90EF90DA
:101AA0000895EF92FF920F931F93CF93DF9300D08F
:101AB0001F92CDB7DEB7FC012289211118C07C012D
:101AC000138A8FE4898380E48B8386858A839F01D0
:101AD0002C5E3F4F00E410E043E050E0BE016F5F3A
:101AE0007F4F848595850E94ED0CF701828B0F90C6
:101AF0000F900F90DF91CF911F910F91FF90EF907A
:101B00000895CF93DF93EC010E94510D8A898823B9
:101B100031F08B89C80FD11D8C8990E002C08FEF06
:101B20009FEFDF91CF910895CF93DF93EC010E9457
:101B3000510D8A89882359F081508A8B8B8991E0D5
:101B4000980F9B8BC80FD11D8C8990E002C08FEF3E
:101B50009FEFDF91CF910895CF93DF93EC010E9427
:101B6000510D8A8990E0DF91CF910895AF92BF9295
:101B7000CF92DF92EF92FF920F931F93CF93DF9359
:101B8000CDB7DEB728970FB6F894DEBF0FBECDBF36
:101B90008C015B01E091E405F091E505DC01149610
:101BA0004D915C9115976D917C910280F381E02DB0
:101BB00084EE95E009958CED91E00E94001168E2B9
:101BC00074E0CE0101960E94930487EC97E00E9496
:101BD000270D86E090E00E9447257C01BE016F5FE3
:101BE0007F4F0E948A04F092D707E092D607CE0179
:101BF00001960E94850461E374E0CE0101960E9483
:101C00009304CE0101960E948312CE0101960E9498
:101C10008504C8010E94831282E58F83E091D60774
:101C2000F091D707048115812081318182E0C82E8F
:101C3000D12CCE0101967C0141E050E0BE01695FEC
:101C40007F4F8091D3079091D4070E94BE0E8A8166
:101C50008093D5070091D6071091D707011511057C
:101C600031F0C8010E948504C8010E94DC25109251
:101C7000D7071092D6078981811103C081E0809334
:101C8000D8070E945912882339F064E670E080E09A
:101C900090E00E94100AF5CF87E58F838091D507E9
:101CA000888702E010E09E012F5F3F4F42E050E046
:101CB000BE01695F7F4F8091D3079091D4070E9446
:101CC000ED0C0E9459128111FCCFB501BB0C880BA1
:101CD000990B0E94100A28960FB6F894DEBF0FBE2B
:101CE000CDBFDF91CF911F910F91FF90EF90DF90CB
:101CF000CF90BF90AF9008959091E3059111FCCFE4
:101D000091E09093E3059093E2052FEF2093E10596
:101D10001092E005280F2093DF059093DE05909147
:101D2000DE05906D9093DE059091DD05913061F4B4
:101D30001092DD059091DE059093BB009091BC0060
:101D400093FDF8CF95EC01C095EE9093BC00909177
:101D5000E3059130E1F39091E005981710F480913C
:101D6000E005ADEBB5E02DE935E0F9019E2F921BC2
:101D7000981718F49D919193F9CF08952F923F925F
:101D80004F925F926F927F928F929F92AF92BF928B
:101D9000CF92DF92EF92FF920F931F93CF93DF9337
:101DA000CDB7DEB72B970FB6F894DEBF0FBECDBF11
:101DB0009B878A875B011901FD82EC823A01600EE4
:101DC000711E872C7B82912C44244A94542C9B01B5
:101DD000240F351F3F832E839101200F311F398738
:101DE0002887EA85FB858085981608F036C1AA8584
:101DF000BB8514965C924E92139715968D919C918B
:101E00001697DC01ED91FC910190F081E02D6FEFD0
:101E100009956FEF8A859B850E94D60CEA85FB8524
:101E200085819681DC01ED91FC910190F081E02D9E
:101E3000AA85BB856C910995EA85FB856081CF01F8
:101E40000E94D60CAA85BB8515968D919C911697FC
:101E5000DC01ED91FC910190F081E02D682D099558
:101E60006B818A859B850E94D60CEA85FB858581DE
:101E70009681DC01ED91FC910190F081E02D662DC1
:101E80000995662D8A859B850E94D60C75012E8149
:101E90003F81E216F306B1F0EA85FB8585819681E4
:101EA0008701DC01ED91FC910190F081E02DD701DB
:101EB0006D917D010995F80160818A859B850E945D
:101EC000D60CE5CF7101AA85BB8515968D919C91A5
:101ED000169728853985E216F30691F08701DC0113
:101EE000ED91FC910190F081E02DD7016D917D0184
:101EF0000995F80160818A859B850E94D60CE3CF05
:101F0000DC01ED91FC91AA85BB8514966C91019042
:101F1000F081E02D0995EA85FB8585819681DC01BC
:101F2000ED91FC910190F081E02DAA85BB8513967F
:101F30006C91099564E670E08A859B850E949F0CF0
:101F40008F3F910509F07DC0EA85FB85548243826D
:101F50006FEFCF010E94D60C65E070E08A859B850B
:101F60000E949F0CAA85BB856C91262F30E08217BA
:101F7000930709F066C0CD010E94D60C6AE070E0BC
:101F80008A859B850E949F0C7C0197FD5AC0682F13
:101F90008A859B850E94D60C6AE070E08A859B85C5
:101FA0000E949F0C8C0197FD4CC0682F8A859B85F1
:101FB0000E94D60CEA821982E981FA810E0F1F1F56
:101FC000E12CF12C65E070E08A859B85E016F10636
:101FD000A9F0EC14FD0491F00E949F0C97FD0AC03B
:101FE000EC81FD81EE0DFF1D8083682F8A859B8526
:101FF0000E94D60CFFEFEF1AFF0AE4CF0E949F0C5D
:102000007C0197FD1EC065E070E08A859B850E947B
:102010009F0C97FD16C0FE2CEE248E0D9F1DAA85E9
:10202000BB8513962D913C9114972817390749F4D5
:102030008C918F5F8C93C801C016D10680F4C601C5
:102040000EC0939464E670E080E090E00E94100A75
:102050008A859B850E94830CC4CE8FEF9FEF2B96C1
:102060000FB6F894DEBF0FBECDBFDF91CF911F91A9
:102070000F91FF90EF90DF90CF90BF90AF909F9027
:102080008F907F906F905F904F903F902F9008952A
:10209000382F20919C0590919B05213208F049C072
:1020A0008091E3058111FCCF42E04093E30530933A
:1020B000E2053FEF3093E1051092E0052093DF0544
:1020C000ABE7B5E04DEB55E0FA013E2F341B32177C
:1020D00018F43D913193F9CF1092DE052091DE0581
:1020E000990F922B9093DE059091DD05913061F46C
:1020F0001092DD059091DE059093BB009091BC009D
:1021000093FDF8CF95EC01C095EE9093BC009091B3
:10211000E3059230E1F39091E1059F3F79F08091E2
:10212000E105803241F08091E105803331F084E0B7
:1021300005C081E003C082E001C083E010927A050F
:1021400010929C0510927905089591E0909379057D
:1021500098E690939B0510927A0510929C05682F43
:1021600084E396E00E94730980E00E94481081E0B9
:102170000E947C0E109278058093770584E396E0A8
:102180000E9427090895EF92FF920F931F93CF9318
:10219000C62F8A0191E09093790598E690939B056C
:1021A00010927A0510929C05682F84E396E00E94B5
:1021B000730980E00E9448108C2FC13208F080E241
:1021C0000E947C0E109278058093770580E0209124
:1021D000770590917805291769F0C1E0C80F78015B
:1021E000E80EF11C84E396E00E942709F701808342
:1021F0008C2FEDCFCF911F910F91FF90EF9008950D
:10220000BC01009791F0FC0101900020E9F73197A3
:10221000AF01481B590BE091E405F091E505028000
:10222000F381E02D84EE95E0099480E090E008953C
:102230008F929F92AF92BF920F931F93CF93DF9392
:10224000CDB7DEB7A1970FB6F894DEBF0FBECDBFF6
:1022500019A2423008F44AE08E010F5D1F4F842E10
:10226000912CA12CB12CA50194010E946322E62F90
:10227000B901CA0101501109EA3014F4E05D01C04E
:10228000E95CD801EC93232B242B252B61F7C801A3
:102290000E940011A1960FB6F894DEBF0FBECDBF0D
:1022A000DF91CF911F910F91BF90AF909F908F9032
:1022B00008954F925F926F927F928F929F92AF920A
:1022C000BF92CF92DF92EF92FF926B017C01B42E0E
:1022D0009B01AC010E940D24882319F084E394E053
:1022E00027C026013701E89477F82FEF3FEF4FE73B
:1022F0005FE7C301B2010E940D2481110DC02FEFD1
:102300003FEF4FE75FE7C301B2010E94882718162D
:102310001CF488E394E00CC02FEF3FEF4FE75FE43D
:10232000C701B6010E94B823181684F48CE394E028
:10233000FF90EF90DF90CF90BF90AF909F908F90E5
:102340007F906F905F904F900C9400112FEF3FEFB4
:102350004FE75FECC701B6010E94882787FDE6CFF3
:1023600020E030E0A901C701B6010E94882787FF5D
:102370000BC06DE284EE95E00E947D074C01F7FAF8
:10238000F094F7F8F09402C0812C912CA12C60E01D
:1023900070E080E09FE3AB1441F020E030E040E2E9
:1023A00051E40E941723A394F6CF9B01AC01C7010F
:1023B000B6010E94AB222B013C010E9489236B01D4
:1023C0007C010E948D279B01AC01C301B2010E94D8
:1023D000AA222B013C014AE0C701B6010E94181154
:1023E0007C01E80CF91CBB2039F06EE284EE95E02C
:1023F0000E947D07E80EF91EDB2CDD2021F120E094
:1024000030E040E251E4C301B2010E94EE272B010B
:102410003C010E9489234B01A12CB12C4AE0C5014B
:10242000B4010E941811E80EF91EC501B4010E9402
:102430008D279B01AC01C301B2010E94AA222B018E
:102440003C01DA94DACFC701FF90EF90DF90CF9094
:10245000BF90AF909F908F907F906F905F904F90C4
:102460000895CF93DF930E940011EC018CED91E071
:102470000E9400118C0F9D1FDF91CF910895CF9383
:10248000C62F91E09093790598E690939B05109262
:102490007A0510929C05682F84E396E00E947309E8
:1024A0006C2F84E396E00E94730981E0CF910C9435
:1024B00048100F931F93CF93DF9300D01F92CDB797
:1024C000DEB782E789838091D5078A8301E010E037
:1024D0009E012D5F3F4F42E050E0BE016F5F7F4F96
:1024E0008091D3079091D4070E94ED0C81E09B81ED
:1024F000913009F080E00F900F900F90DF91CF9115
:102500001F910F9108950F931F93CF93DF938C0129
:10251000C7ECD7E041E050E060E474E08F85988933
:102520000E940804F80144815581608171818F8582
:102530009889DF91CF911F910F910C9408040F930C
:102540001F93CF93DF93CDB7DEB768970FB6F8949C
:10255000DEBF0FBECDBF8C0162E474E0CE010796F2
:102560000E949304BE01695F7F4FCE0101960E94D5
:102570008A04B801CE0101960E944804BC01CE0134
:1025800043960E948A04CE0101960E948504CE01E2
:1025900007960E94850460E173E0CE0101960E94D7
:1025A00093046CE574E0CE0107960E949304BE018B
:1025B0006D5E7F4FCE010D960E948A04BE01695F59
:1025C0007F4FCE010D960E944804BE016F5F7F4F82
:1025D0000E944804BC01CE0143960E945B04CE01D8
:1025E0000D960E948504CE0107960E948504CE01B7
:1025F00001960E948504BE016D5E7F4FCE0101965B
:102600000E948A0460EA7FE0CE0101960E94B60D26
:10261000CE0101960E948504CE0143960E94850456
:1026200068960FB6F894DEBF0FBECDBFDF91CF9195
:102630001F910F910895FC0180912408811103C01E
:102640008FEF9FEF08959FB7F89482E08093E900A1
:102650002091F20030E01216130614F421E030E06D
:102660002115310559F0289884E68093230880913C
:10267000F10080838091F200882319F09FBFC90187
:1026800008958BE68093E800F9CF809129088111A5
:102690000DC082E08093250884E080932608109284
:1026A00028081092270881E08093290885E298E0A5
:1026B0000895CF93DF93CDB7DEB7C655D1090FB6D6
:1026C000F894DEBF0FBECDBF789484B5826084BD20
:1026D00084B5816084BD85B5826085BD85B5816026
:1026E00085BD80916E00816080936E0010928100A4
:1026F000809181008260809381008091810081605F
:10270000809381008091800081608093800080911F
:10271000910082608093910080919100816080930C
:102720009100809190008160809390008091C10021
:1027300084608093C1008091C10082608093C10059
:102740008091C10081608093C1008091C30081604D
:102750008093C3008091C00082608093C00080910C
:10276000C20081608093C20080917A00846080936F
:102770007A0080917A00826080937A0080917A005A
:10278000816080937A0080917A00806880937A00DB
:102790001092240810929204109291048091D70014
:1027A00081608093D70080EA8093D80089B58061EA
:1027B00089BD89B5826089BD09B400FEFDCF61E0A5
:1027C00070E080E090E00E94100A8091D8008F7C39
:1027D00080618093D8008091E000807F8093E0004A
:1027E0008091E1008E7E8093E1008DE08093E20095
:1027F000559A209AEEEFFFE7859194918B3F9C4D7F
:1028000019F481E0809390048FEF9FEF9093F1058E
:102810008093F00585E791E00E943112E091C507B1
:10282000F091C607A089B18982E08C93A485B58513
:102830001C92A685B78587E08C93108EA489B589F4
:1028400086E08C93A289B3898C9180618C93A28954
:10285000B3898C9188608C93A289B3898C918068AC
:102860008C930288F389E02D80818F7D8083809115
:10287000C3078111C3C081E08093C3078CEB97E04D
:102880000E94830C68EE73E080E090E00E94100AE2
:102890008091C1079091C207DC01ED91FC91048009
:1028A000F581E02D09951816190644F3E5E0FE2E92
:1028B000EE24E394F2E3DF2EE4E1F1E0DE01599649
:1028C0008F2D01900D928A95E1F7E092C40700E008
:1028D00010E020E030E045E050E0BE01675E7F4F51
:1028E0008CEB97E00E94ED0C63E08091C107909122
:1028F000C2070E947D076AEF70E080E090E00E94CE
:10290000100A6AE571E08091C1079091C2070E94A8
:1029100084076AEF70E080E090E00E94100A68E5AA
:1029200071E08091C1079091C2070E94840764EF13
:1029300071E080E090E00E94100A6CE471E0809108
:10294000C1079091C2070E94840764EF71E080E0A4
:1029500090E00E94100A8CEB97E00E94830CE9E162
:10296000F1E0DE0111968F2D01900D928A95E1F72D
:10297000D092C40704E010E09E012B5D3F4F45E07C
:1029800050E0BE016F5F7F4F8CEB97E00E94ED0C33
:102990008F3FBFEF9B0739F468EE73E080E090E073
:1029A0000E94100A89CF2DA12111FFCF0497E9F4CD
:1029B0002EA130E02053310984E6829FA001839F3D
:1029C000500D11242FA130E0205331096AE0629F9D
:1029D000C001639F900D1124840F951F28A530E03E
:1029E00020533109820F931F02C084E690E0909338
:1029F000BE078093BD0782E38093C40789E991E015
:102A00000E943112109278051092770510927A0583
:102A100010929C051092E30581E08093E2051092EC
:102A2000DD0561E082E00E94E00961E083E00E9450
:102A3000E0098091B9008E7F8093B9008091B90040
:102A40008D7F8093B90088E48093B80085E48093FB
:102A5000BC008DEA91E00E94311285E70E94A5102A
:102A6000182F8FEB91E00E94001188EC91E00E94FA
:102A70000011C12ED12CE12CF12C40E1C701B6018F
:102A80000E9418118EEC91E00E94001140E161E774
:102A900070E080E090E00E9418118CED91E00E94BF
:102AA0000011113719F01F3F09F0AAC68FED91E010
:102AB0000E9431128E01095C1F4F86E0F8011192CD
:102AC0008A95E9F760E089E10E943F1262E08AE1BD
:102AD0000E943F1261E08BE10E943F1262E08DE1B3
:102AE0000E943F1261E08CE10E943F1278ECE72ED9
:102AF000F12CA80166E08BE30E94C3108FA990E03F
:102B0000982F882728AD822B2BA53CA5820F931FD9
:102B10009CA78BA789AD90E0982F88272AAD822BA0
:102B20002DA53EA5820F931F9EA78DA78BAD90E08C
:102B3000982F88272CAD822B2FA538A9820F931FA1
:102B400098AB8FA7A80166E083E40E94C3108FA909
:102B500090E0982F882728AD822B29A93AA9820FC7
:102B6000931F9AAB89AB89AD90E0982F88272AAD47
:102B7000822B2BA93CA9820F931F9CAB8BAB8BADF7
:102B800090E0982F88272CAD822B2DA93EA9820F8B
:102B9000931F9EAB8DABF1E0EF1AF10809F0A9CFBE
:102BA0004E012BE2820E911C5E0131E3A30EB11C9B
:102BB0009501F401A8ECEA2EF12C80819181B701F6
:102BC0000E944F2261937193D9018D919C91B7011D
:102BD0000E944F22D9016D937D939D01EA15FB055B
:102BE00061F760EE8CE10E943F1260EE8BE10E9483
:102BF0003F1269E170E080E090E00E94100A78ECFA
:102C0000E72EF12CA80166E08BE30E94C3108FA988
:102C100090E0982F882728AD822B2DA13EA1820F0E
:102C2000931F9EA38DA389AD90E0982F88272AAD8E
:102C3000822B2FA138A5820F931F98A78FA38BAD4E
:102C400090E0982F88272CAD822B29A53AA5820FDA
:102C5000931F9AA789A7A80166E083E40E94C31086
:102C60008FA990E0982F882728AD822B298D3A8D47
:102C7000820F931F9A8F898F89AD90E0982F8827B4
:102C80002AAD822B2B8D3C8D820F931F9C8F8B8FB7
:102C90008BAD90E0982F88272CAD822B2D8D3E8D0B
:102CA000820F931F9E8F8D8FB1E0EB1AF10809F010
:102CB000A9CF2E01E5E24E0E511C8E01075E1F4F7B
:102CC0009801F201302E212EA8ECEA2EF12C808101
:102CD0009181B7010E944F2261937193D9018D9127
:102CE0009C91B7010E944F22D9016D937D939D0164
:102CF000E815F90561F760E08CE10E943F1260E0A1
:102D00008BE10E943F1269E170E080E090E00E9458
:102D1000100A8DE00E94A510682E8EE00E94A5107A
:102D2000782E8FE00E94A510C82E80E00E94A5108A
:102D3000D82E81E00E94A510E82E82E00E94A51006
:102D4000F82E662D70E080E090E00E948D2720E054
:102D500030E040E85FE30E94AA229B01AC016EEAEA
:102D600077E481E89FE30E94BD2320E030EC43E25A
:102D700055E40E94EE2769837A838B839C83672DB9
:102D800070E080E090E00E948D2720E030E040E895
:102D90005FE30E94AA229B01AC016EEA77E481E81E
:102DA0009FE30E94BD2320E030EC43E255E40E9403
:102DB000EE276D837E838F8398876C2D70E080E093
:102DC00090E00E948D2720E030E040E85FE30E9421
:102DD000AA229B01AC016EEA77E481E89FE30E949E
:102DE000BD2320E030EC43E255E40E94EE276987E2
:102DF0007A878B879C876D2D70E080E090E00E9441
:102E00008D2720E030E040E85FE30E94AA229B018A
:102E1000AC016EEA77E481E89FE30E94BD2320E0E5
:102E200030EC43E255E40E94EE276D877E878F8762
:102E3000988B6E2D70E080E090E00E948D2720E05E
:102E400030E040E85FE30E94AA229B01AC016EEAF9
:102E500077E481E89FE30E94BD2320E030EC43E269
:102E600055E40E94EE27698B7A8B8B8B9C8B6F2DA0
:102E700070E080E090E00E948D2720E030E040E8A4
:102E80005FE30E94AA229B01AC016EEA77E481E82D
:102E90009FE30E94BD2320E030EC43E255E40E9412
:102EA000EE276D8B7E8B8F8B988FFE0131966F0195
:102EB0007CEFE72E76E0F72EE3E06E2E712CD20148
:102EC0006D917D912D01F401819191914F019701B7
:102ED0002E553F4F3EAF2DAF681B790B072E000CD0
:102EE000880B990B0E948F2720E030E048EC52E4D9
:102EF0000E94EE27D6012D913D914D915C910E944B
:102F00001723EDADFEAD6083718382839383D80177
:102F10006D917D918D01F501819191915F019701F5
:102F200022553F4F3EAF2DAF681B790B072E000C8B
:102F3000880B990B0E948F2720E030E048EC52E488
:102F40000E94EE27D6011C962D913D914D915C91EA
:102F50001F970E941723EDADFEAD608371838283BE
:102F60009383F1E06F1A710824E0C20ED11C34E0A3
:102F7000E30EF11C6114710409F0A1CF84EF91E01C
:102F80000E94001160919E0770919F078091A00799
:102F90009091A10741E00E94591182E292E00E94C3
:102FA000311260E88BE60E943F1264E670E080E038
:102FB00090E00E94100A61E08BE60E943F1260E000
:102FC0008CE60E943F1268EC70E080E090E00E9486
:102FD000100A60E088E30E943F1260E083E20E94F2
:102FE0003F1260E08BE60E943F1260E084E20E94A4
:102FF0003F1260E08AE60E943F126CE08AE60E947F
:103000003F126FE070E080E090E00E94100A61E003
:103010008AE10E943F1260E089E10E943F1260E075
:103020008BE10E943F1260E08CE10E943F1260E45D
:103030008AE60E943F1268E783E20E943F1268E23C
:1030400070E080E090E00E94100A60E083E20E945D
:103050003F12432D522D62E082E70E94C310898DFA
:1030600090E0982F88272A8D822B6CE070E00E94D8
:103070003B228B01812C912C5401412C512C32018B
:1030800021961CAE1DAE1EAE1FAE21972D961CAE16
:103090001DAE1EAE1FAE2D9729961CAE1DAE1EAEE8
:1030A0001FAE299725961CAE1DAE1EAE1FAE2597EE
:1030B000C12CD12CC016D10609F48FC0AE01475ED9
:1030C0005F4F6CE084E70E94C310898D90E0982FD9
:1030D00088272A8D822B092E000CAA0BBB0B219668
:1030E0002CAD3DAD4EAD5FAD2197280F391F4A1F66
:1030F0005B1F21962CAF3DAF4EAF5FAF21978B8DFD
:1031000090E0982F88272C8D822B092E000CAA0B7B
:10311000BB0B480E591E6A1E7B1E8D8D90E0982FAA
:1031200088272E8D822B092E000CAA0BBB0B880E34
:10313000991EAA1EBB1E8F8D90E0982F882728A16C
:10314000822B092E000CAA0BBB0B25962CAD3DAD96
:103150004EAD5FAD2597280F391F4A1F5B1F25967F
:103160002CAF3DAF4EAF5FAF259789A190E0982F70
:1031700088272AA1822B092E000CAA0BBB0B2996AB
:103180002CAD3DAD4EAD5FAD2997280F391F4A1FBD
:103190005B1F29962CAF3DAF4EAF5FAF29978BA138
:1031A00090E0982F88272CA1822B092E000CAA0BC7
:1031B000BB0B2D962CAD3DAD4EAD5FAD2D97280FC1
:1031C000391F4A1F5B1F2D962CAF3DAF4EAF5FAF2F
:1031D0002D973FEFC31AD30A6DCFE12CF12C219626
:1031E0006CAD7DAD8EAD9FAD2197A70196010E947C
:1031F000852261962CAF3DAF4EAF5FAF6197C301A3
:10320000B201A70196010E94852265962CAF3DAFC1
:103210004EAF5FAF6597C501B401A70196010E944B
:10322000852249015A0125966CAD7DAD8EAD9FADCD
:103230002597A70196010E94852229013A01299626
:103240006CAD7DAD8EAD9FAD2997A70196010E9413
:10325000852225962CAF3DAF4EAF5FAF25972D96BB
:103260006CAD7DAD8EAD9FAD2D97A70196010E94EF
:10327000852229962CAF3DAF4EAF5FAF299718142A
:1032800019041A041B0464F4D501C4019054A10963
:10329000B10921968CAF9DAFAEAFBFAF21970BC0E8
:1032A000A5019401305C4F4F5F4F21962CAF3DAF8D
:1032B0004EAF5FAF219794E0C92ED12CE12CF12CB9
:1032C000C301B201A70196010E9485225095409545
:1032D000309521953F4F4F4F5F4FBB2757FDBA9514
:1032E000A52F942F832F2D968CAF9DAFAEAFBFAF80
:1032F0002D97898F2A8F25966CAD7DAD8EAD9FADB4
:103300002597A70196010E948522509540953095FA
:1033100021953F4F4F4F5F4F3B8F2C8F29966CADC0
:103320007DAD8EAD9FAD2997A70196010E948522A4
:1033300050954095309521953F4F4F4F5F4F3D8FB2
:103340002E8F2A966FAD2A9783E10E943F126A8DD5
:1033500084E10E943F126B8D85E10E943F126C8DCB
:1033600086E10E943F126D8D87E10E943F126E8DB3
:1033700088E10E943F12C301B2010E948F2720E022
:1033800030E043E053E40E94172360938607709374
:103390008707809388079093890725966CAD7DAD4C
:1033A0008EAD9FAD25970E948F2720E030E043E04F
:1033B00053E40E94172360938A0770938B078093CE
:1033C0008C0790938D0729966CAD7DAD8EAD9FAD2A
:1033D00029970E948F2720E030E043E053E40E94C9
:1033E000172360938E0770938F07809390079093B5
:1033F0009107AE01475E5F4F62E087E70E94C3100E
:10340000898C912C982C88248A8D882A092C000C70
:10341000AA08BB0889829A82AB82BC82AE01475E51
:103420005F4F62E08AE70E94C310498C512C542CF4
:1034300044248A8D482A052C000C660877084D82A2
:103440005E826F827886AE01475E5F4F62E08DE7F5
:103450000E94C310898D90E0982F88272A8D822B97
:103460009C01990F440B550B25962CAF3DAF4EAFE9
:103470005FAF259729873A874B875C871DA21EA2DD
:103480001FA2FE013196DE019596CE010D968F01A9
:103490001D0121E0419151916191719140FD2C9369
:1034A0001196E817F907B1F7B8E0CB2ED12CE12C33
:1034B000F12C61966CAD7DAD8EAD9FAD6197A7018E
:1034C00096010E948522821A930AA40AB50A65967B
:1034D0006CAD7DAD8EAD9FAD6597A70196010E9445
:1034E0008522421A530A640A750A21966CAD7DAD95
:1034F0008EAD9FAD2197A70196010E94852225964A
:10350000CCACDDACEEACFFAC2597C21AD30AE40A12
:10351000F50A9927B7FC9A958B2D7A2D692D698F1D
:103520002DA1822A8A8E5B8E2EA1422A4C8EDD8EA0
:103530002FA12C292E8F87E70E943F126A8D88E7E2
:103540000E943F126B8D8AE70E943F126C8D8BE7C1
:103550000E943F126D8D8DE70E943F126E8D8EE7A7
:103560000E943F1261966CAD7DAD8EAD9FAD6197AF
:103570000E948F2720E030E040E858E30E94EE27C9
:1035800060939207709393078093940790939507A5
:1035900065966CAD7DAD8EAD9FAD65970E948F2712
:1035A00020E030E040E858E30E94EE276093960761
:1035B00070939707809398079093990721966CAD25
:1035C0007DAD8EAD9FAD21970E948F2720E030E02A
:1035D00040E858E30E94EE2760939A0770939B0798
:1035E00080939C0790939D0760E08BE60E943F12BA
:1035F00064E670E080E090E00E94100A61E08BE6F3
:103600000E943F1268EC70E080E090E00E94100A97
:1036100063E08AE10E943F1264E089E10E943F1268
:103620008BE10E94A510857E9091FC0648E0949F56
:1036300090011124682F622B8BE10E943F128CE1D4
:103640000E94A510877E9091FD0658E0959F9001FD
:103650001124682F622B8CE10E943F128DE10E94A1
:10366000A510807F682F63608DE10E943F1262E2A7
:1036700087E30E943F1261E088E30E943F1264E604
:1036800070E080E090E00E94100A85E392E00E94E2
:1036900031121092F8061092F7061092F606109268
:1036A000F5061092F4061092F3068DE991E09093DE
:1036B000FA068093F9068091E90698EF980F943006
:1036C00048F022EF280F243028F026EE280F233070
:1036D00008F060C02DEB30E03093F4062093F30641
:1036E0002BE931E03093F6062093F5062CE231E029
:1036F0003093F8062093F706943058F092EF980F25
:10370000943038F08A51833008F460C4A0E0B0E00F
:103710005FC4A8E6B0E0E8E6F0E0808181608C93C9
:103720008091E90698EF980F943058F022EF280F17
:10373000243038F026EE280F233018F020E030E057
:1037400002C02BE630E03093F1062093F00694306F
:1037500010F49CEF09C08E3071F08F3071F0803121
:1037600071F0813171F09AEE980F81E001C0880FFD
:103770009A95EAF707C088E005C082E003C084E0BC
:1037800001C081E08093F2068091F9069091FA06DB
:103790000197F1F78091F7069091F806892B21F1B6
:1037A0008091950490919604A6E08D3D9A07E1F0F2
:1037B000009711F00E941A0B8091FB068E7F809378
:1037C000FB0610929404109293048DED96E0909372
:1037D000960480939504E091F006F091F1069081B3
:1037E0008091F206892B808382E692E00E9431125A
:1037F0008BE792E00E943112FE0131967F0167C192
:1038000088E892E00E94001140E1C701B6010E94E1
:1038100018118CED91E00E940011FFCFB6016A19DA
:103820007B0980E090E00E948D2723E333E343E5AA
:1038300050E40E94EE2720E030E040E85AE30E9486
:10384000EE274B015C0120E030E040E85FE30E949E
:10385000B82387FFA5C2ECE6F1E08491E6E5F2E04B
:10386000D490E7E3F2E0C490CC2009F4ACC381111A
:103870000E94A309EC2DF0E0EE0FFF1FEB5DFD4F62
:10388000A591B491EC91DE2231E020E009F430E022
:10389000832F922F9093E0048093DF04019709F027
:1038A00014C186EB93E00E94311285EC93E00E94F4
:1038B000311260E173E0CE0149960E94930461E603
:1038C00073E0CE018B960E949304BE01655D7F4F2D
:1038D000C1010E948A04BE01675E7F4FC1010E9440
:1038E0004804BC01C8010E948A0460E070E0C8017D
:1038F0000E94B60DC8010E948504C1010E94850482
:10390000CE018B960E948504CE0149960E948504C3
:1039100081E08093DE0463EE73E0C8010E949304AB
:10392000C8010E949F12C8010E94850469ED73E0DE
:10393000C8010E949304C8010E949F12C8010E94FE
:1039400085046FED73E0C8010E949304C8010E94D2
:103950009F12C8010E94850465EE73E0C8010E94B1
:103960009304C8010E949F12C8010E9485046BEE57
:1039700073E0C8010E949304C8010E949F12C8010D
:103980000E94850461EF73E0C8010E949304C8019E
:103990000E949F12C8010E94850467EF73E0C8016E
:1039A0000E949304C8010E949F12C8010E948504CE
:1039B0006DEF73E0C8010E949304C8010E949F123A
:1039C000C8010E94850463E074E0C8010E9493046A
:1039D000C8010E949F12C8010E94850469E074E03A
:1039E000C8010E949304C8010E949F12C8010E944E
:1039F00085046EE074E0C8010E949304C8010E942F
:103A00009F12C8010E94850463EE73E0C8010E9402
:103A10009304C8010E949F12C8010E94850469EDA9
:103A200073E0C8010E949304C8010E949F12C8015C
:103A30000E9485046FED73E0C8010E949304C801E1
:103A40000E949F12C8010E94850465EE73E0C801C0
:103A50000E949304C8010E949F12C8010E9485041D
:103A600060E173E0CE0149960E9493046FE773E032
:103A7000CE018B960E949304BE01655D7F4FC1010C
:103A80000E948A04BE01675E7F4FC1010E94480404
:103A9000BC01C8010E948A0460E070E0C8010E9475
:103AA000B60DC8010E948504C1010E948504CE01A3
:103AB0008B960E948504CE0149960E94850410923F
:103AC000DE0483E194E00E9431120E94B4028DED85
:103AD00096E00E94AC08892BD9F189EA92E00E9415
:103AE00031128DED96E00E94AC08892BC1F0C09098
:103AF000D704D090D8045601FFEFAF1ABF0AB09296
:103B0000D804A092D7048DED96E00E94C408F60177
:103B1000E956FB4F808320E4A216B10411F7C09050
:103B2000D704D090D804A60167E974E084EE95E04C
:103B30000E943A03E7E9F4E0CF01875994408C15DD
:103B40009D0514F41192F8CF1092D8041092D70466
:103B500084EE95E00E940008892B49F084EE95E000
:103B60000E94C603682F8DED96E00E9458080E94BF
:103B70004A0A8090D9049090DA04092C000CAA0813
:103B8000BB08DC01CB0188199909AA09BB09853F4B
:103B90009140A105B10508F4A9C08AE30E94A510CF
:103BA00080FF9EC0A70166E08BE30E94C31069817D
:103BB00070E0762F66278A81682B7093B707609331
:103BC000B6078B8190E0982F88272C81822B9093C9
:103BD000B9078093B8078D8190E0982F88272E81B0
:103BE000822B9093BB078093BA078091FD068130AA
:103BF00079F048F0823089F0833021F520E030E020
:103C000040E05AE317C080E090E0A0E8B8E309C0C4
:103C100020E030E040E059E30DC080E090E0A0E813
:103C2000B9E380933E0790933F07A0934007B0937A
:103C3000410708C020933E0730933F074093400759
:103C400050934107072E000C880B990B0E948F2779
:103C500020913E0730913F07409140075091410726
:103C60000E94EE2760934A0770934B0780934C079E
:103C700090934D070E944A0A80901607909017076C
:103C8000A0901807B0901907DC01CB018819990999
:103C9000AA09BB098093120790931307A0931407F6
:103CA000B0931507853F9140A105B105C8F080ED9F
:103CB00092E00E94001120E030E04AE754E4609175
:103CC0004A0770914B0780914C0790914D070E94D5
:103CD000EE2742E00E94591186ED92E00E943112D7
:103CE0000E944A0A7093DA046093D9040E944A0A37
:103CF0002B013C01A12C54E0B52EC12CD12C0E94EB
:103D00004A0ADC01CB0184199509A609B7098A3F43
:103D10009105A105B10508F081CDECE5F1E0249114
:103D200030917B0023FBFF27F0F96696FFAF669783
:103D300067961FAE679767968EAD9FAD679745E014
:103D4000880F991F4A95E1F7932F9F7D892B8093C8
:103D50007B002770206420937C0080917A0080642F
:103D600080937A0080917A0086FDFCCF8091780064
:103D70002091790090E0922B9093DD048093DC04F5
:103D8000811524E0920708F0BACFC816D90630F0A2
:103D90008A159B0508F0B3CF5C01B1CF6C01AFCFA2
:103DA0008AED92E00E94311287EE92E00E940011AB
:103DB00042E0C501B4010E9459118CED91E00E94CE
:103DC000001126E636E646E050E4C501B4010E9443
:103DD000B82387FD71C08FEE92E00E94311280916E
:103DE000DE0460E173E0811134C0CE0149960E9487
:103DF000930461E673E0CE018B960E949304BE01AA
:103E0000655D7F4FCE0185960E948A04BE01675E84
:103E10007F4FCE0185960E944804BC01C7010E94D5
:103E20008A0460E070E0C7010E94B60DC7010E94DD
:103E30008504CE0185960E948504CE018B960E9452
:103E40008504CE0149960E94850481E08093DE04BA
:103E500002CDCE0149960E9493046FE773E0CE0134
:103E60008B960E949304BE01655D7F4FCE018596BF
:103E70000E948A04BE01675E7F4FCE0185960E9434
:103E80004804BC01C7010E948A0460E070E0C701D9
:103E90000E94B60DC7010E948504CE0185960E943E
:103EA0008504CE018B960E948504CE0149960E941E
:103EB00085041092DE04CFCC8091DE04882309F4BF
:103EC000CACC2091DB048091000190910101222352
:103ED00069F049968F3F910564F04EEF50E05093A2
:103EE0000101409300011092DB040FC0499797FD38
:103EF00005C0909301018093000107C01092010159
:103F00001092000181E08093DB0460E173E0CE0158
:103F100049960E9493046CE874E0CE0185960E9455
:103F20009304C0900001D09001016EE973E0CE01CE
:103F3000C1960E949304BE016F5C7F4FCE018B96A9
:103F40000E948A044AE0B701C6010E945327F70184
:103F500001900020E9F73197AF014E195F09B701D1
:103F6000CE018B960E940804811104C0CE018B966D
:103F70000E943604BE016B5D7F4FCE018B960E947E
:103F80004804BE01675E7F4F0E944804BC01C70120
:103F90000E948A0460E070E0C7010E94B60DC7016C
:103FA0000E948504CE018B960E948504CE01C196A5
:103FB0000E948504CE0185960E948504CE01499613
:103FC0000E94850448CC80E090E064CCA8E6B0E094
:103FD000833008F4A0CBE0E0F0E09FCBCF92DF92FB
:103FE000EF92FF920F931F93CF93DF931F92CDB762
:103FF000DEB7182F062FE42E862F880F8E5F998349
:104000000E94650183E00E946501F12EC12E998115
:10401000D92E8C2D8F19801798F4F601E7FE02C077
:10402000849101C080810E946501182F80E00E9468
:1040300065018123FFEFCF1ADF0A8111EACF01C0AA
:1040400081E00F90DF91CF911F910F91FF90EF9042
:10405000DF90CF90089589E591E09093DE068093FC
:10406000DD068DED96E00E941A0B89E691E09093B3
:10407000C8078093C70787EC97E00C94270D0F9330
:104080001F93CF93DF9380E496E010924306109243
:10409000420648EE53E060E070E0409344065093DF
:1040A0004506609346067093470629E231E0309357
:1040B0004106209340062DEC30E030934D062093CE
:1040C0004C062CEC30E030934F0620934E0628EC43
:1040D00030E0309351062093500629EC30E03093C5
:1040E0005306209352062AEC30E030935506209375
:1040F00054062EEC30E0309357062093560610926B
:10410000590610925A0610925B0610925C061092A5
:10411000E7051092E6054093E8055093E9056093A2
:10412000EA057093EB0529E331E03093E505209330
:10413000E4052FEF3FEF3093F1052093F005109247
:10414000370610923606409338065093390660932E
:104150003A0670933B0629E431E03093350620930C
:1041600034060EE017EC2AE13FE300931F0810939A
:104170002008209321083093220810921B081092E7
:104180001C0810921D0810921E081092BC079093F4
:10419000C2078093C1071092C3071092C40790937F
:1041A000C6078093C5071092CA071092C9074093AB
:1041B000CB075093CC076093CD077093CE0789E669
:1041C00091E09093C8078093C7078CEB97E090939A
:1041D000D4078093D3071092D8071092D907109272
:1041E000DA071092FC061092FD0691E09093FE060D
:1041F00082E08093FF06109212071092130710922C
:1042000014071092150710921607109217071092B4
:1042100018071092190710921A0710921B07109294
:104220001C0710921D0710921E0710921F07109274
:104230002007109221071092220710922307109254
:104240002407109225071092260710922707109234
:1042500028071092290710922A0710922B07109214
:104260002C0710922D0710922E0710922F071092F4
:1042700030071092310710926E0710926F0710925C
:1042800070071092710710927207109273071092C4
:1042900074071092750710927607109277071092A4
:1042A00078071092790710927A0710927B07109284
:1042B0007C0710927D0710927E0710927F07109264
:1042C0008007109281071092820710928307109244
:1042D0008407109285071092860710928707109224
:1042E00088071092890710928A0710928B07109204
:1042F0008C0710928D0710928E0710928F071092E4
:1043000090071092910710929207109293071092C3
:1043100094071092950710929607109297071092A3
:1043200098071092990710929A0710929B07109283
:104330009C0710929D071092E0061092DF064093B2
:10434000E1065093E2066093E3067093E40629E5E4
:1043500031E03093DE062093DD061092F4061092D1
:10436000F3061092F6061092F5061092F8061092D7
:10437000F7061092FA061092F9068091FB068E7FDE
:104380008D7F8093FB0686958170682F692783E077
:104390000E94E009E5E5F2E02491E6E3F2E0849191
:1043A000882399F090E0880F991FFC01E95EFD4F8A
:1043B000A591B491FC01E75FFD4F859194918FB772
:1043C000F894EC91E22BEC938FBFE5E5F2E0E491F9
:1043D000E093ED06E6E3F2E0E491F0E0EE0FFF1F7C
:1043E000E75FFD4F859194919093EF068093EE06E1
:1043F000E4E5F2E02491E5E3F2E084918823C1F062
:1044000090E0880F991FFC01E95EFD4FC591D491A2
:10441000FC01E75FFD4FA591B4919FB7F8948881A7
:10442000E22FE0958E2388838C91E823EC939FBF45
:104430008091FB0681FD04C061E082E00E94E009FA
:1044400082E08093E906E4E5F2E0E491E093EA0695
:10445000E5E3F2E0E491F0E0EE0FFF1FEB5DFD4FCE
:10446000859194919093EC068093EB06DF91CF9128
:104470001F910F910895AA1BBB1B51E107C0AA1FF2
:10448000BB1FA617B70710F0A61BB70B881F991FF5
:104490005A95A9F780959095BC01CD01089597FB99
:1044A000072E16F4009407D077FD09D00E943B2216
:1044B00007FC05D03EF4909581959F4F0895709527
:1044C00061957F4F0895A1E21A2EAA1BBB1BFD0127
:1044D0000DC0AA1FBB1FEE1FFF1FA217B307E407E3
:1044E000F50720F0A21BB30BE40BF50B661F771F3B
:1044F000881F991F1A9469F760957095809590951B
:104500009B01AC01BD01CF010895052E97FB1EF460
:1045100000940E949C2257FD07D00E94632207FC52
:1045200003D04EF40C949C225095409530952195E3
:104530003F4F4F4F5F4F08959095809570956195CF
:104540007F4F8F4F9F4F0895EE0FFF1F0590F491FF
:10455000E02D09945058BB27AA270E94C2220C9430
:1045600072280E94642838F00E946B2820F039F4E9
:104570009F3F19F426F40C9461280EF4E095E7FBB4
:104580000C945B28E92F0E94832858F3BA1762071E
:1045900073078407950720F079F4A6F50C94A528F5
:1045A0000EF4E0950B2EBA2FA02D0B01B90190014E
:1045B0000C01CA01A0011124FF27591B99F0593F92
:1045C00050F4503E68F11A16F040A22F232F342FDA
:1045D0004427585FF3CF469537952795A795F04028
:1045E0005395C9F77EF41F16BA0B620B730B840B3D
:1045F000BAF09150A1F0FF0FBB1F661F771F881FF5
:10460000C2F70EC0BA0F621F731F841F48F487954C
:1046100077956795B795F7959E3F08F0B0CF93953E
:10462000880F08F09927EE0F9795879508950E94B7
:104630002B230C9472280E946B2858F00E94642847
:1046400040F029F45F3F29F00C945B2851110C9441
:10465000A6280C9461280E94832868F39923B1F35B
:10466000552391F3951B550BBB27AA276217730798
:10467000840738F09F5F5F4F220F331F441FAA1F2C
:10468000A9F335D00E2E3AF0E0E832D091505040E8
:10469000E695001CCAF72BD0FE2F29D0660F771F96
:1046A000881FBB1F261737074807AB07B0E809F07C
:1046B000BB0B802DBF01FF2793585F4F3AF09E3F01
:1046C000510578F00C945B280C94A6285F3FE4F326
:1046D000983ED4F3869577956795B795F7959F5F44
:1046E000C9F7880F911D9695879597F90895E1E090
:1046F000660F771F881FBB1F621773078407BA07EF
:1047000020F0621B730B840BBA0BEE1F88F7E09549
:1047100008950E948B2888F09F5798F0B92F992709
:10472000B751B0F0E1F0660F771F881F991F1AF09C
:10473000BA95C9F714C0B13091F00E94A528B1E034
:1047400008950C94A528672F782F8827B85F39F033
:10475000B93FCCF3869577956795B395D9F73EF435
:1047600090958095709561957F4F8F4F9F4F0895DD
:104770000E94CA2708F48FEF0895FA01EE0FFF1F79
:10478000309621053105A1F16115710561F480387C
:10479000BFE39B0749F168949038810561F0803848
:1047A000BFEF9B0741F099234AF5FF3FE105310533
:1047B000210519F1E8940894E795D901AA2329F471
:1047C000AB2FBE2FF85FD0F310C0FF5F70F4A6953B
:1047D000E0F7F73950F019F0FF3A38F49F779F93DC
:1047E0000DD00F9007FC9058089546F00C94612866
:1047F00060E070E080E89FE308954FE79F775F9364
:104800004F933F932F930E94BD242F913F914F913F
:104810005F910E94EE270C941A240E94CA27880BED
:10482000990B089529F416F00C945B280C94A52894
:104830000C9461280E948B28A8F39638A0F707F8FB
:104840000F92E8942BE33AEA48EB5FE70E940428D2
:104850000F920F920F924DB75EB70F920E940525EF
:10486000EAECF0E00E944C244F915F91EF91FF91B0
:10487000E595EE1FFF1F49F0FE57E0684427EE0F55
:10488000441FFA95E1F74195550B0E947F240F9044
:1048900007FE0C9473240895DF93CF931F930F9317
:1048A000FF92EF92DF927B018C01689406C0DA2EB2
:1048B000EF010E940128FE01E894A5912591359110
:1048C00045915591A6F3EF010E94C222FE01970186
:1048D000A801DA9469F7DF90EF90FF900F911F9194
:1048E000CF91DF9108959B01AC0160E070E080E81A
:1048F0009FE30C9417230C945B280C9439250E9499
:104900008B28D8F39923C9F3940F511DA3F3915029
:10491000504094F059F0882332F0660F771F881FBB
:1049200091505040C1F79E3F51052CF7880F911DC3
:104930009695879597F908955F3FACF0983E9CF067
:10494000BB27869577956795B79508F4B1609395E1
:10495000C1F7BB0F58F711F460FFE8CF6F5F7F4FCF
:104960008F4F9F4FE3CF0C94A62816F00C94392557
:104970000C94612868940C945B280E948B28A8F3FF
:104980009923C1F3AEF3DF93CF931F930F93FF925D
:10499000C92FDD2788232AF02197660F771F881FEC
:1049A000DAF720E030E040E85FEB9FE3883920F061
:1049B000803E38F021968F770E94AB22E2EFF0E044
:1049C00004C00E94AB22EFE1F1E00E944C248B0175
:1049D000BE01EC01FB2E6F5771097595771F880B8F
:1049E000990B0E948F2728E132E741E35FE30E94A1
:1049F0000128AF2D9801AE01FF900F911F91CF912B
:104A0000DF910E94C2220C947228FA01DC01AA0FE5
:104A1000BB1F9B01AC01BF5728F422273327442733
:104A2000507820C0B75190F4AB2F002446953795AD
:104A30002795011CA395D2F3002071F0220F331F9C
:104A4000441FB395DAF30ED00C94AA22613071059D
:104A5000A0E88A07B94630F49B01AC0166277727A6
:104A600088279078309621F02083318342835383C6
:104A700008959F3F31F0915020F487957795679581
:104A8000B795880F911D9695879597F90895CF93BF
:104A9000DF938230910510F482E090E0E0913308DA
:104AA000F091340820E030E0C0E0D0E0309711F120
:104AB0004081518148175907C0F04817590761F4E0
:104AC00082819381209719F09B838A832BC09093D6
:104AD00034088093330826C02115310519F0421798
:104AE000530718F49A01BE01DF01EF010280F38140
:104AF000E02DDCCF2115310509F1281B390B2430BD
:104B0000310590F412968D919C9113976115710562
:104B100021F0FB019383828304C090933408809337
:104B20003308FD01329644C0FD01E20FF31F81936B
:104B30009193225031092D933C933AC02091310832
:104B400030913208232B41F4209110013091110152
:104B5000309332082093310820910E0130910F01DB
:104B60002115310541F42DB73EB740911201509106
:104B70001301241B350BE0913108F0913208E21744
:104B8000F307A0F42E1B3F0B2817390778F0AC0170
:104B90004E5F5F4F2417350748F04E0F5F1F50934D
:104BA0003208409331088193919302C0E0E0F0E035
:104BB000CF01DF91CF9108950F931F93CF93DF9390
:104BC000009709F48CC0FC01329713821282009185
:104BD0003308109134080115110581F420813181C9
:104BE000820F931F2091310830913208281739071E
:104BF00079F5F0933208E093310871C0D80140E0B4
:104C000050E0AE17BF0750F412962D913C911397C8
:104C1000AD012115310509F1D901F3CF9D01DA016B
:104C20003383228360817181860F971F82179307D8
:104C300069F4EC0128813981260F371F2E5F3F4F21
:104C4000318320838A819B8193838283452B29F43E
:104C5000F0933408E093330842C01396FC93EE932C
:104C60001297ED01499159919E01240F351FE217CA
:104C7000F30771F480819181840F951F029611963C
:104C80009C938E938281938113969C938E9312971B
:104C9000E0E0F0E0D80112968D919C911397009777
:104CA00019F0F8018C01F6CF8D919C9198012E5F3F
:104CB0003F4F820F931F20913108309132082817FF
:104CC000390769F4309729F41092340810923308A8
:104CD00002C0138212821093320800933108DF91D0
:104CE000CF911F910F910895A0E0B0E0EAE7F6E2BE
:104CF0000C94B028EC01009721F4CB010E944725C9
:104D0000B8C0FC01E60FF71F9C0122503109E217E1
:104D1000F30708F4ACC0D9010D911C911197061747
:104D20001707B0F00530110508F49FC0C8010497BB
:104D30008617970708F499C002501109061B170B34
:104D4000019311936D937C93CF010E94DC258DC05C
:104D50005B01A01AB10A4C01800E911EA09133088C
:104D6000B091340840E050E0E12CF12C109709F4A8
:104D70004AC0A815B905D1F56D907C9011976301D3
:104D800082E0C80ED11CCA14DB0480F1A3014A19C9
:104D90005B096A0182E0C80ED11C1296BC90129782
:104DA0001396AC91B5E0CB16D10440F0B282A38348
:104DB00051834083D9016D937C930AC00E5F1F4FCE
:104DC000C301800F911FF90191838083EB2DFA2F8E
:104DD000E114F10431F0D7011396FC93EE9312978E
:104DE00044C0F0933408E09333083FC08D919C9108
:104DF00011974817590708F4AC017D0112960D90E0
:104E0000BC91A02DB3CF80913108909132088815C4
:104E10009905E1F446175707C8F480910E01909167
:104E20000F01009741F48DB79EB740911201509148
:104E30001301841B950BE817F907C8F4F0933208A7
:104E4000E0933108F901718360830FC0CB010E94A8
:104E500047257C01009759F0A801BE010E94432715
:104E6000CE010E94DC25C70104C0CE0102C080E053
:104E700090E0CDB7DEB7EEE00C94CC2881E090E076
:104E8000F8940C94E328FB01DC0102C001900D9220
:104E900041505040D8F70895FB01DC0101900D927C
:104EA0000020E1F70895BB274A3031F4992322F41A
:104EB000BDE2909581959F4F0C945F27BB27FB0126
:104EC0005527AA27880F991FAA1FA41710F0A41B03
:104ED00083955051B9F7A05DAA3308F0A95DA1935D
:104EE000009779F7B111B1931192CB010C94782707
:104EF000DC01FC01672F71917723E1F7329704C041
:104F00007C916D9370836291AE17BF07C8F30895CB
:104F10000E94CA2708F481E00895E89409C097FB2D
:104F20003EF490958095709561957F4F8F4F9F4F80
:104F30009923A9F0F92F96E9BB279395F6958795C4
:104F400077956795B795F111F8CFFAF4BB0F11F487
:104F500060FF1BC06F5F7F4F8F4F9F4F16C088232E
:104F600011F096E911C0772321F09EE8872F762F64
:104F700005C0662371F096E8862F70E060E02AF0A5
:104F80009A95660F771F881FDAF7880F9695879591
:104F900097F90895990F0008550FAA0BE0E8FEEF66
:104FA00016161706E807F907C0F012161306E407ED
:104FB000F50798F0621B730B840B950B39F40A26E6
:104FC00061F0232B242B252B21F408950A2609F4C4
:104FD000A140A6958FEF811D811D08950E94012893
:104FE0000C9472280E94642838F00E946B2820F0EC
:104FF000952311F00C945B280C94612811240C94D7
:10500000A6280E94832870F3959FC1F3950F50E066
:10501000551F629FF001729FBB27F00DB11D639F6A
:10502000AA27F00DB11DAA1F649F6627B00DA11D10
:10503000661F829F2227B00DA11D621F739FB00DB6
:10504000A11D621F839FA00D611D221F749F332726
:10505000A00D611D231F849F600D211D822F762FBF
:105060006A2F11249F5750409AF0F1F088234AF09C
:10507000EE0FFF1FBB1F661F771F881F9150504008
:10508000A9F79E3F510580F00C945B280C94A6284C
:105090005F3FE4F3983ED4F3869577956795B7958F
:1050A000F795E7959F5FC1F7FE2B880F911D9695A9
:1050B000879597F9089597F99F6780E870E060E019
:1050C00008959FEF80EC089500240A9416161706A1
:1050D00018060906089500240A94121613061406E9
:1050E00005060895092E0394000C11F4882352F04C
:1050F000BB0F40F4BF2B11F460FF04C06F5F7F4F04
:105100008F4F9F4F089557FD9058440F551F59F0EA
:105110005F3F71F04795880F97FB991F61F09F3FA4
:1051200079F087950895121613061406551FF2CFCD
:105130004695F1DF08C0161617061806991FF1CF1D
:1051400086957105610508940895E894BB27662744
:105150007727CB0197F908952F923F924F925F9254
:105160006F927F928F929F92AF92BF92CF92DF9277
:10517000EF92FF920F931F93CF93DF93CDB7DEB7DC
:10518000CA1BDB0B0FB6F894DEBF0FBECDBF099470
:105190002A88398848885F846E847D848C849B84C7
:1051A000AA84B984C884DF80EE80FD800C811B81D5
:1051B000AA81B981CE0FD11D0FB6F894DEBF0FBE04
:1051C000CDBFED01089511E0CAE3D1E004C0FE01B6
:1051D0000E94A4222196CB33D107C9F7F894FFCFC0
:1051E000FE00FFFFFFFF00E10000000000000000E4
:1051F000350880005858585858585831303000C138
:105200008081000000000000004B02C7011402F280
:10521000010602920200000000BE023A030008C626
:1052200003E403D40200000000730943093B09278B
:105230000918091709000000005808C701AC08C484
:10524000083F08570800000000020DC701AC0D948C
:105250000D810DA2095374617274696E67207570B7
:105260002E2E2E20496E697469616C6973696E67B0
:10527000204272696467652E004272696467652026
:10528000696E697469616C697365642E005769722F
:105290006520696E697469616C697365642E004D7F
:1052A00050553932353020004920414D20002049E9
:1052B0002073686F756C6420626520000D0A004DD4
:1052C000505539323530206973206F6E6C696E65C8
:1052D0002E2E2E00782D617869732073656C662000
:1052E000746573743A20616363656C657261746997
:1052F0006F6E207472696D2077697468696E203AE8
:10530000200025206F6620666163746F72792076B5
:10531000616C7565004D50553932353020696E69C4
:105320007469616C697A656420666F722061637468
:105330006976652064617461206D6F64652E2E2E20
:105340002E00524649442052656164657220696EA0
:10535000697469616C697365642E00526561647972
:1053600020746F20676F2100436F756C64206E6F2F
:105370007420636F6E6E65637420746F204D50559A
:10538000393235303A20307800496E207468652013
:105390006C6F6F7020616E642052464944207265C4
:1053A0006164657220617661696C61626C652E0072
:1053B0006178203D2000206D67004B6E6F636B208D
:1053C0004B6E6F636B2E00766F6C74733A200054D3
:1053D00068617427732069742120205468617427E0
:1053E000732077617920746F6F206C6F7564210072
:1053F000687474703A2F2F3139322E3136382E308E
:105400002E3130302F6170692F4545324D642D5853
:105410004B5461496A4D6A394A37387A7453505A45
:10542000727544396C3950364130536B6E78734A1B
:10543000642F6C69676874732F312F73746174659E
:10544000006375726C202D5820505554202D642017
:10545000277B226F6E223A747275657D2720006368
:1054600075726C202D5820505554202D6420277BB8
:10547000226F6E223A66616C73657D27200063752A
:10548000726C202D5820505554202D6420277B22EB
:10549000627269223A00427574746F6E2070726590
:1054A00073736564005374617274696E67206C690C
:1054B0006768742073686F77003536313030003597
:1054C000343130300034363932300034323736350A
:1054D000003335303932003235353030003230313A
:1054E000323800313237353000353338340031301E
:1054F000323900446F6E652077697468206C696783
:1055000068742073686F77002F62696E2F6173680B
:10551000002D63006E616E00696E66006F76660036
:10552000FE006375726C202D5820505554202D6458
:1055300020277B2268756522203A20002C202273C8
:10554000617422203A203235302C20226272692286
:105550003A203235342C20227472616E736974697A
:105560006F6E74696D65223A203330207D272000EC
:1070000055C000006EC000006CC000006AC00000E7
:1070100068C0000066C0000064C0000062C00000DC
:1070200060C000005EC00000FCC400005AC0000048
:1070300058C0000056C0000054C0000052C00000FC
:1070400050C000005DC000004CC000004AC00000FD
:1070500048C0000046C0000044C0000042C000001C
:1070600040C000003EC000003CC000003AC000002C
:1070700038C0000036C0000034C0000032C000003C
:1070800030C000002EC000002CC000002AC000004C
:1070900028C0000026C0000024C0000022C000005C
:1070A00020C000001EC000001CC0000011241FBE34
:1070B000CFEFDAE0DEBFCDBF11E0A0E0B1E0E6E463
:1070C000FFE702C005900D92A63AB107D9F711E08B
:1070D000A6EAB1E001C01D92AF3BB107E1F74FD383
:1070E00030C78ECFF89410926F001092810081E02B
:1070F00085BF15BE47985D9A289A0C9400000895A4
:107100001F920F920FB60F9211242F938F939F937C
:10711000EF93FF9310928500109284008091A60156
:107120009091A701009741F001979093A701809358
:10713000A601892B09F45D9A8091A8019091A9017B
:10714000009741F001979093A9018093A801892BA2
:1071500009F4289A8091AC019091AD010196909329
:10716000AD018093AC01E0E0F0E0859194918F5FF8
:107170009F4F49F08091AA019091AB0101969093A5
:10718000AB018093AA01FF91EF919F918F912F9175
:107190000F900FBE0F901F90189584E08093E90028
:1071A0000DC08091E8008B778093E80003C08EB318
:1071B000882351F08091E80082FFF9CF8091E800A8
:1071C00085FFEFCF8091F1000895982F83E08093A1
:1071D000E9008091E80085FD0DC08091E8008E7780
:1071E0008093E80003C08EB3882369F08091E800A3
:1071F00080FFF9CF9093F1005D9884E690E0909342
:10720000A7018093A60108954F925F926F927F929B
:107210008F929F92AF92BF92CF92DF92EF92FF92A6
:107220000F931F93CF93DF9384E08093E9008091C5
:10723000E80082FF57C2289884E690E09093A90165
:107240008093A801AADF182F853481F48CE49DE196
:107250009093AB018093AA0107B600FCFDCFF9998A
:10726000FECF81E180935700E89503C0843519F47F
:1072700094DF8DE00DC28C34E1F38035D1F3843797
:1072800021F484E4A2DF80E003C2813611F489E5B1
:10729000FFC18134B1F481DF182F7FDF90E0880FC8
:1072A000991FAA2797FDA095BA2F312F330F20E001
:1072B000442737FD4095542F822B932BA42BB52BBD
:1072C000B8C1803711F483E5E3C1833549F4C0E0E8
:1072D000D1E089917ADF21E0C730D207D1F7D9C157
:1072E000863521F481E371DF80E3D2C1833731F445
:1072F00087E86BDF85E969DF8EE1CAC18536B9F4BD
:10730000E0E0F0E093E085E090935700E89507B661
:1073100000FCFDCF80935700E89507B600FCFDCF39
:10732000E058FF4FA0E7E030FA0771F7A2CF8237AD
:1073300039F4E1E0F0E089E0809357008491A8C13E
:10734000863439F4E0E0F0E089E0809357008491DE
:107350009FC18E3439F4E3E0F0E089E08093570078
:10736000849196C1813539F4E2E0F0E089E08093C0
:10737000570084918DC1823631F489E526DF80E0A3
:1073800024DF80E885C1823419F0873609F0E5C032
:107390001092AB011092AA0100DF082FFEDEF82E3A
:1073A000FCDE682E8554823008F071C1902F80E099
:1073B000CF2DD0E0C82BD92B10926F00173609F0D3
:1073C0004BC081E180935700E895DD24CC24C39421
:1073D0003FC0E090AF01F090B0010091B101109179
:1073E000B201B6E46B16D9F4ED2DF0E0EE29FF29D9
:1073F000E4918E2FEADEDD2081F082E090E0A0E0D3
:10740000B0E0E80EF91E0A1F1B1FE092AF01F092D8
:10741000B0010093B1011093B201DC2418C0D8016F
:10742000C701B695A7959795879575D5CEDE82E06D
:1074300090E0A0E0B0E0E80EF91E0A1F1B1FE092EA
:10744000AF01F092B0010093B1011093B201219706
:10745000209709F0BECF7DC08090AF019090B00121
:10746000A090B101B090B20196E4691609F05DC038
:1074700083E0F40180935700E89507B600FCFDCF48
:1074800054C0F6E46F1661F5772031F1E090AF015A
:10749000F090B0010091B1011091B2017EDED82EC2
:1074A000CC24852D90E08C299D29F7010C01409278
:1074B0005700E895112482E090E0A0E0B0E0E80EEB
:1074C000F91E0A1F1B1FE092AF01F092B00100935A
:1074D000B1011093B20102C060DE582E742423C0A3
:1074E000E090AF01F090B0010091B1011091B201B4
:1074F00016950795F794E79450DE682FC70113D5CA
:107500008091AF019091B001A091B101B091B20111
:107510000296A11DB11D8093AF019093B001A0937D
:10752000B101B093B201219704C0552477244424BB
:107530004394209709F0A5CF96E4691641F485E0BD
:10754000F40180935700E89507B600FCFDCF8DE06D
:107550003CDE82E080936F009CC0833471F4009124
:10756000AF011091B00119DE90E021E0F8010C01AB
